:03000000020200F9
:1001000042415349432043414C43554C41544F5283
:10011000004552524F523A2044495620425920300D
:10012000004F564552464C4F5721004552523A33E4
:1001300044494700425241434B45542045525200E6
:100140000001010102020202020380969840420F60
:10015000A08601102700E803006400000A000001E7
:0201600000009D
:10020000120B8630A31730A41730A51730A617306D
:10021000B02630B13530B24430B35380E602022903
:1002200002052102054802057130A3FD120BFEE50F
:100230002C6401F52C02020330B45E30B55230B6A6
:100240004630B73DD2B0C2B180B930B44F30B543BB
:1002500030B63730B72ED2B1C2B280A730B44030FA
:10026000B53430B62830B746D2B2C2B3809530B478
:100270003A30B53430B62E30B728D2B3C2B002020D
:10028000030202B10202D10202E60202FB020310E3
:1002900002032502033A02034F02036402037902B8
:1002A000038E0203B10203C10203D10203E1020380
:1002B000A37801120B7A7530007531007532007524
:1002C0003500753600753700753800753900020243
:1002D0000330B7FDE52C600302058378301203F18B
:1002E000120B6E02020330B6FDE52C600302054BD3
:1002F00078311203F1120B6E02020330B6FDE52CC9
:10030000600302057478321203F1120B6E020203CD
:1003100030B6FDE52C600302051878331203F112A4
:100320000B6E02020330B5FDE52C60030205247854
:10033000341203F1120B6E02020330B5FDE52C609E
:10034000030204C978351203F1120B6E0202033066
:10035000B5FDE52C6003020A7178361203F1120B29
:100360006E02020330B4FDE52C6003020A02783706
:100370001203F1120B6E02020330B4FDE52C600390
:10038000020A2F78381203F1120B6E02020330B406
:10039000FDE52C60030204A578391203F1120B6EFF
:1003A00002020330B7FD783D120B6E1205E4020223
:1003B0000330B7FD782B120B6E742B1205940202DA
:1003C0000330B6FD782D120B6E742D1205940202C7
:1003D0000330B5FD782A120B6E742A1205940202BE
:1003E0000330B4FD782F120B6E742F1205940202A5
:1003F00003E52B600F752B007530007531007532E9
:1004000000753500E535B40304120B4A220535C3E7
:10041000E89430F520E5302530F521E5313531F52A
:1004200022E5323532F52385302485312585322683
:10043000C3E52433F524E52533F525E52633F526F4
:10044000C3E52433F524E52533F525E52633F526E4
:10045000C3E52433F524E52533F525E52633F526D4
:10046000C3E5242521F530E5253522F531E526358E
:1004700023F532C3E5302520F530E5313400F53180
:10048000E5323400F53275360122E5357004E52B8E
:1004900060121209757530007531007532007535BE
:1004A00000752B0022E536B40107742A12059480EA
:1004B00008B40205742A12059474281209D17536FD
:1004C000007828120B6E0202037825120B6E742539
:1004D00012059402020385302085312185322222C3
:1004E000E52A5480F524E5225480F525C3E5282526
:1004F00020F526E5293521F5F0E52A3522FFE5240A
:100500006525700BEF548065246004120B3E228534
:10051000262885F0298F2A221204D61204E002022E
:100520000330A4FD1204D6852877852978852A7999
:1005300085207485217585227612070F85202885F0
:10054000212985222A02020330A5FD85283085292C
:1005500031852A32753500752B0175360178801288
:100560000B7A853040853141853242120A9E020263
:100570000330A6FD752800752900752A00752B002B
:1005800002020312048A12063E7536027829120B03
:100590006E020203F52712048AE536B40017E52738
:1005A000B42D1275300075310075320075350112A9
:1005B00009757535001209F66021F526B428028008
:1005C0001AE526120653F525E527120653F524E50C
:1005D00025C39524400512067480DAE5271209D157
:1005E0007536002212048A7539001209F6600CB4BF
:1005F0002804120B562212067480EFE537B4013A34
:100600001209B385203085213185223278C0120B42
:100610007A853040853141853242120A9EE539544F
:10062000016016E53D453E453F600E782E120B6E8B
:100630001208D52430F8120B6E22120B3E2212093A
:10064000F6600CB428041209E72212067480EF1237
:100650000B5622B42B03740122B42D03740122B46F
:100660002A03740222B42F03740222B425037402F5
:10067000227400221209E7F5271209B38520748538
:1006800021758522761209B3852077852178852208
:1006900079E527B42B128577208578218579221278
:1006A00006FB5053120B3E22B42D0512070F804754
:1006B000B42A09120723503F120B3E22B425201200
:1006C00007235004120B3E22852074852175852254
:1006D000767577647578007579001208578018E58B
:1006E00074457545767004120B32221207BA500415
:1006F000120B322243390112099422C3E5202574DA
:10070000F520E5213575F521E5223576F52222C360
:10071000E5779574F520E5789575F521E579957679
:10072000F5222285776885786985796A756B007509
:100730006C00756D00756E00756F007570007571D9
:10074000007572007573007D18E57454016025C34F
:10075000E56E2568F56EE56F3569F56FE570356A0C
:10076000F570E571356BF571E572356CF572E57311
:10077000356DF573C3E56833F568E56933F569E50B
:100780006A33F56AE56B33F56BE56C33F56CE56D53
:1007900033F56DC3E57613F576E57513F575E574F8
:1007A00013F574DDA4E571457245736002D32285AB
:1007B0006E20856F21857022C322E57445754576CC
:1007C0007002D32285743A85753B85763CE5795471
:1007D00080F524E5765480F52585777485787585D0
:1007E0007976E5246003120809853A77853B788598
:1007F0003C79E5256003120823120857E524652596
:100800005480600312083DC322B274B275B276C33D
:10081000E5742401F574E5753400F575E57634006A
:10082000F57622B277B278B279C3E5772401F5770D
:10083000E5783400F578E5793400F57922B220B214
:1008400021B222C3E5202401F520E5213400F52161
:10085000E5223400F5222275200075210075220062
:10086000753D00753E00753F007D18C3E52033F5EA
:1008700020E52133F521E52233F522C3E57433F574
:1008800074E57533F575E57633F576E53D33F53D7D
:10089000E53E33F53EE53F33F53F1208B84016C359
:1008A000E53D9577F53DE53E9578F53EE53F957953
:1008B000F53F432001DDB422E53FC3957940147034
:1008C00010E53EC39578400B7007E53DC395774032
:1008D00002C322D322E53A453B453C700374002213
:1008E000853D77853E78853F79C3E57733F577E5B4
:1008F0007833F578E57933F579853D74853E7585EE
:100900003F767D03C3E57433F574E57533F575E51E
:100910007633F576DDEEC3E5742577F574E5753548
:1009200078F575E5763579F576853A77853B78857E
:100930003C797400F526120958401AC3E57495777E
:10094000F574E5759578F575E5769579F57605266E
:10095000E526B40AE1E52622E576C39579401470D0
:1009600010E575C39578400B7007E574C395774023
:1009700002C322D322E537B40A04120B3E22E53724
:10098000F524252425242440F9A73009A73109A7F7
:1009900032053722E537B40A04120B3E22E537F55B
:1009A00024252425242440F9A72009A72109A722CA
:1009B000053722E53760161537E537F52425242558
:1009C000242440F9872009872109872222120B3E1F
:1009D00022F524E538B40A04120B3E22E538245EE1
:1009E000F9E524F7053822E53860091538E538249B
:1009F0005EF9E722E422E538600614245EF9E72276
:100A0000E422E535B40125E5327021E531701DE5BC
:100A100030B40A02801678C0120B7AE5308530F0C7
:100A2000A4F54085F041754200120A9E020203E5DA
:100A300035B4013AE5327036E5317032E530B40A4A
:100A400002802B78C0120B7AE5308530F0A4F57760
:100A500085F07875790085307475750075760012AB
:100A60000723852040852141852242120A9E0202E9
:100A700003E535B40125E5327021E531701DE5301F
:100A8000B40A02801678C0120B7A900140E53093C8
:100A9000F540754100754200120A9E020203E542CC
:100AA00030E71A782D120B6EE540F42401F540E58D
:100AB00041F43400F541E542F43400F542120AC134
:100AC00022E540F57AE541F57BE542F57C90014A67
:100AD0007F087E00E493F57DA3E493F57EA3E49381
:100AE000F57FA37D00120B154016C3E57A957DF5C1
:100AF0007AE57B957EF57BE57C957FF57C0D80E541
:100B0000ED7006EE7003BF01097E01ED2430F8128E
:100B10000B6EDFC022E57CC3957F40147010E57B2F
:100B2000C3957E400B7007E57AC3957D4002C322D2
:100B3000D32278C0120B7A900111120B622278C076
:100B4000120B7A900121120B622278C0120B7A905C
:100B5000012B120B622278C0120B7A900134120B17
:100B60006222E4936007F8120B6EA380F52288904E
:100B7000D2A1D2A2120BE5C2A2228890C2A1D2A217
:100B8000120BE5C2A222E4F530F531F532F53575E8
:100B900036007537007538007539007528007529DD
:100BA00000752A00752B00752C00F5807590007576
:100BB000A0F975B0FE7838120B7A780E120B7A789D
:100BC00001120B7A7806120B7A7880120B7A780170
:100BD000120B7A900100120B62120BE5120BE578F2
:100BE00001120B7A22C007C006C0057F027E647D19
:100BF000FADDFEDEFADFF6D005D006D00722C00708
:0F0C0000C0067E0A7FFADFFEDEFAD006D007229A
:00000001FF
